:100000000C942A000C94DC0C0C940F0D0C94420DF3
:100010000C94070B0C94D40A0C9447000C946E0AB1
:100020000C94A10A0C943B0A0C94080A0C94D50970
:100030000C9447000C9479070C9447000C94AC077F
:100040000C9447000C9447000C9447000C94470014
:100050000C94470011241FBECFE5D8E0DEBFCDBF12
:1000600010E0A0E6B0E0EEEFF8E302C005900D92DC
:10007000A837B107D9F710E0A8E7B0E001C01D929A
:10008000A139B107E1F70E94191C0C947D1C0C9456
:100090000000EF92FF920F931F937B018C0120E0F1
:1000A00030E040E05FE40E94F50388238CF0C80153
:1000B000B70120E030E040E05FE40E94C1010E940F
:1000C00055049B01AC01205030404040504806C0D0
:1000D000C801B7010E9455049B01AC01B901CA01D6
:1000E0001F910F91FF90EF900895A0E0B0E0EBE733
:1000F000F0E00C94461CDC012B01FA019C9192303B
:1001000008F439C1EB018881823008F433C194309E
:1001100069F4843009F02FC111969C91119789815F
:10012000981709F428C1A0E6B0E025C1843009F48D
:1001300021C18230A9F4923009F01DC19A01AD01AC
:1001400088E0EA010990AE01E90109929E0181501F
:10015000C1F7E201898111969C918923818308C1AD
:10016000923009F407C112962D903C901397EB0141
:100170008A819B811496AD90BD90CD90DC901797AD
:10018000EC80FD800E811F819101281B390BB90184
:1001900037FF04C066277727621B730B6032710537
:1001A0000CF061C0121613066CF537014801062EDB
:1001B00004C096948794779467940A94D2F721E0C8
:1001C00030E040E050E004C0220F331F441F551FB1
:1001D0006A95D2F721503040404050402E213F21B7
:1001E00040235123211531054105510521F021E01E
:1001F00030E040E050E079018A01E628F72808293C
:1002000019293CC0232BD1F1260E371E350146019A
:10021000062E04C096948794779467940A94D2F734
:1002200021E030E040E050E004C0220F331F441FC3
:10023000551F6A95D2F721503040404050402A2146
:100240003B214C215D21211531054105510521F04E
:1002500021E030E040E050E059016A01A628B728CB
:10026000C828D9280BC0821593052CF01C01AA249C
:10027000BB24650103C0EE24FF24870111969C91E5
:10028000D20111968C91981709F445C0992339F041
:10029000A80197012A193B094C095D0906C0A6016E
:1002A00095012E193F09400B510B57FD08C01182D3
:1002B0003382228224833583468357831DC081E0A5
:1002C00081833382228288279927DC01821B930B4A
:1002D000A40BB50B84839583A683B7830DC0220F2F
:1002E000331F441F551F24833583468357838281E0
:1002F000938101979383828324813581468157813D
:10030000DA01C9010197A109B1098F5F9F4FAF4F72
:10031000BF4328F30BC0918333822282EA0CFB1C7B
:100320000C1D1D1DE482F5820683178383E0808304
:10033000248135814681578157FF1AC0C901AA27F8
:1003400097FDA095BA2F81709070A070B0705695EF
:10035000479537952795822B932BA42BB52B848318
:100360009583A683B7838281938101969383828349
:10037000DF0101C0D201CD01CDB7DEB7E2E10C94BF
:10038000621CA0E2B0E0E7ECF1E00C94521C69833F
:100390007A838B839C832D833E834F835887E9E048
:1003A000EE2EF12CEC0EFD1ECE010196B7010E943F
:1003B0007E058E010F5E1F4FCE010596B8010E948B
:1003C0007E058A8991E089278A8BC701B801AE0131
:1003D000475E5F4F0E9475000E94A904A096E6E068
:1003E0000C946E1CA0E2B0E0E8EFF1E00C94521C1B
:1003F00069837A838B839C832D833E834F835887C5
:10040000F9E0EF2EF12CEC0EFD1ECE010196B701A6
:100410000E947E058E010F5E1F4FCE010596B8012A
:100420000E947E05C701B801AE01475E5F4F0E9482
:1004300075000E94A904A096E6E00C946E1CA0E250
:10044000B0E0E5E2F2E00C94461C69837A838B838A
:100450009C832D833E834F835887CE010196BE0136
:10046000675F7F4F0E947E05CE010596BE016F5EDD
:100470007F4F0E947E059985923088F0898982306D
:10048000C8F0943019F4823051F404C0843029F457
:10049000923081F480E690E0C6C0923049F420E0CA
:1004A0009A858A89981321E02A87CE010996BBC0D4
:1004B000823049F420E09A858A89981321E02A8BBA
:1004C000CE014196B0C02D843E844F8458886D88FB
:1004D0007E888F88988CEE24FF248701AA24BB2471
:1004E000650140E050E060E070E0E0E0F0E0C10174
:1004F00081709070892BE9F0E60CF71C081D191D1E
:100500009A01AB012A0D3B1D4C1D5D1D80E090E062
:10051000A0E0B0E0E614F7040805190520F481E036
:1005200090E0A0E0B0E0BA01A901480F591F6A1F8E
:100530007B1FAA0CBB1CCC1CDD1C97FE08C081E0F5
:1005400090E0A0E0B0E0A82AB92ACA2ADB2A3196B6
:10055000E032F10549F0660C771C881C991C569412
:10056000479437942794C3CFFA85EA892B893C892D
:100570008B859C85280F391F2E5F3F4F17C0CA01FE
:1005800081709070892B61F016950795F794E79428
:1005900080E090E0A0E0B0E8E82AF92A0A2B1B2BC3
:1005A00076956795579547952F5F3F4F77FDE7CF36
:1005B0000CC0440F551F661F771F17FD4160EE0CDE
:1005C000FF1C001F111F21503040403090E05907A0
:1005D00090E0690790E4790760F32B8F3C8FDB0193
:1005E000CA018F779070A070B07080349105A1051A
:1005F000B10561F447FD0AC0E114F10401051105DC
:1006000029F0405C5F4F6F4F7F4F40781A8EFE1786
:1006100011F081E08A8F4D8F5E8F6F8F78A383E01A
:10062000898FCE0149960E94A904A096E2E10C941C
:10063000621CA8E1B0E0EFE1F3E00C944E1C69838A
:100640007A838B839C832D833E834F835887B9E0C5
:10065000EB2EF12CEC0EFD1ECE010196B7010E948F
:100660007E058E010F5E1F4FCE010596B8010E94D8
:100670007E052985223008F47EC03989323010F495
:10068000B8017CC08A859A8989278A87243011F02D
:10069000223031F4231709F06EC060E670E06EC0BE
:1006A000343039F41D861E861F86188A1C861B86E8
:1006B00004C0323021F484E08987B7015FC02B8504
:1006C0003C858B899C89281B390B3C872B87ED84C3
:1006D000FE840F851889AD88BE88CF88D88CEA142F
:1006E000FB040C051D0540F4EE0CFF1C001F111F40
:1006F000215030403C872B8720E030E040E050E044
:1007000080E090E0A0E0B0E460E070E0EA14FB0478
:100710000C051D0540F0282B392B4A2B5B2BEA18C2
:10072000FB080C091D09B695A79597958795EE0CC2
:10073000FF1C001F111F6F5F7F4F6F31710531F775
:10074000DA01C9018F779070A070B0708034910584
:10075000A105B10561F427FD0AC0E114F10401050A
:10076000110529F0205C3F4F4F4F5F4F20782D87B8
:100770003E874F87588BBE01675F7F4FCB010E943A
:10078000A9046896EAE00C946A1CA8E1B0E0EBECDE
:10079000F3E00C94521C69837A838B839C832D83B2
:1007A0003E834F83588789E0E82EF12CEC0EFD1E26
:1007B000CE010196B7010E947E058E010F5E1F4F8C
:1007C000CE010596B8010E947E058985823040F0F1
:1007D0008989823028F0C701B8010E94F60501C05E
:1007E0008FEF6896E6E00C946E1CA8E1B0E0EBEFAA
:1007F000F3E00C94521C69837A838B839C832D8352
:100800003E834F83588789E0E82EF12CEC0EFD1EC5
:10081000CE010196B7010E947E058E010F5E1F4F2B
:10082000CE010596B8010E947E058985823040F090
:100830008989823028F0C701B8010E94F60501C0FD
:100840008FEF6896E6E00C946E1CA8E1B0E0EBE256
:10085000F4E00C94521C69837A838B839C832D83F0
:100860003E834F83588789E0E82EF12CEC0EFD1E65
:10087000CE010196B7010E947E058E010F5E1F4FCB
:10088000CE010596B8010E947E058985823040F030
:100890008989823028F0C701B8010E94F60501C09D
:1008A00081E06896E6E00C946E1CACE0B0E0EBE50D
:1008B000F4E00C94561C69837A838B839C83CE016D
:1008C0000196BE016B5F7F4F0E947E058D81823055
:1008D00061F1823050F1843021F48E81882351F10E
:1008E0002EC02F81388537FD20C06E812F31310514
:1008F0001CF06623F9F023C08EE190E0821B930B7D
:1009000029853A854B855C8504C056954795379572
:1009100027958A95D2F76623B1F05095409530958A
:1009200021953F4F4F4F5F4F0EC020E030E040E039
:1009300050E009C02FEF3FEF4FEF5FE704C020E02A
:1009400030E040E050E8B901CA012C96E2E00C9496
:10095000721CDF92EF92FF920F931F93FC01E480D1
:10096000F58006811781D1808081823048F480E053
:1009700090E0A0E1B0E0E82AF92A0A2B1B2BA5C0E1
:10098000843009F49FC0823021F4EE24FF248701D3
:1009900005C0E114F1040105110519F4E0E0F0E0EF
:1009A00096C0628173819FEF623879070CF05BC05B
:1009B00022E83FEF261B370B2A3131052CF020E0CF
:1009C00030E040E050E02AC0B801A701022E04C088
:1009D00076956795579547950A94D2F781E090E010
:1009E000A0E0B0E004C0880F991FAA1FBB1F2A9582
:1009F000D2F70197A109B1098E219F21A023B1232C
:100A00000097A105B10521F081E090E0A0E0B0E001
:100A10009A01AB01282B392B4A2B5B2BDA01C90138
:100A20008F779070A070B07080349105A105B105EA
:100A300039F427FF09C0205C3F4F4F4F5F4F04C080
:100A4000215C3F4F4F4F5F4FE0E0F0E02030A0E0EF
:100A50003A07A0E04A07A0E45A0710F0E1E0F0E00E
:100A600079018A0127C06038710564F5FB01E158FE
:100A7000FF4FD801C7018F779070A070B07080349D
:100A80009105A105B10539F4E7FE0DC080E490E0C1
:100A9000A0E0B0E004C08FE390E0A0E0B0E0E80E9A
:100AA000F91E0A1F1B1F17FF05C016950795F7941F
:100AB000E794319687E016950795F794E7948A9521
:100AC000D1F705C0EE24FF248701EFEFF0E06E2F91
:100AD000679566276795902F9F77D794DD24D794E5
:100AE0008E2F8695492F462B582F5D29B701CA01B5
:100AF0001F910F91FF90EF90DF900895FC01DB01B3
:100B0000408151812281622F6F7770E0221F22275E
:100B1000221F9381892F880F822B282F30E0991F65
:100B20009927991F11969C93119721153105A9F5C5
:100B3000411551056105710511F482E037C082E865
:100B40009FEF13969C938E9312979A01AB0167E0E7
:100B5000220F331F441F551F6A95D1F783E08C93F2
:100B60000DC0220F331F441F551F12968D919C916B
:100B70001397019713969C938E931297203080E0E1
:100B8000380780E0480780E4580758F314962D93FF
:100B90003D934D935C93179708952F3F310579F45A
:100BA000411551056105710519F484E08C93089590
:100BB00064FF03C081E08C9312C01C9210C02F57B9
:100BC000304013963C932E93129783E08C9387E0EA
:100BD000440F551F661F771F8A95D1F770641496CE
:100BE0004D935D936D937C93179708951F93DC014C
:100BF000FB019C91923008F447C08081823008F458
:100C000043C0943051F411961C91843099F5818140
:100C1000682F70E0611B71093FC0843021F0923071
:100C200031F48230B9F18181882389F12DC0119688
:100C30001C9111978230F1F081811817D9F4129626
:100C40002D913C911397828193818217930794F0A1
:100C500028173907BCF014968D919D910D90BC9189
:100C6000A02D2481358146815781281739074A07ED
:100C70005B0718F4112341F00AC082179307A407F9
:100C8000B50740F4112319F061E070E005C06FEF83
:100C90007FEF02C060E070E0CB011F910895DF9309
:100CA000CF9300D00F92CDB7DEB71B821A82198284
:100CB000E9E2F0E087E68083E0E4F0E010828B81F7
:100CC000877F8B838B818B7F8B838B818F7E8B83C5
:100CD0008981806889838981826089838981846030
:100CE00089838A818B7F8A8389818F7B89838B81AA
:100CF0008D7F8B8389818F7E898389818F7D898395
:100D00008981877F89838A818F7D8A838A818F7B8E
:100D10008A838A8180688A83AFE5B0E0EFE5F0E0FE
:100D2000808180688C938A8188608A838A818061CF
:100D30008A83EBE2F0E08B818083EAE2F0E08A8153
:100D40008083E0E4F0E08981808388E160E00E94B4
:100D5000AA0F89E161E00E94AA0F0F900F900F90F7
:100D6000CF91DF910895DF93CF9300D0CDB7DEB759
:100D70009A838983EBE2F0E0808182958695877083
:100D8000882F90E0817090700097A1F3ECE2F0E082
:100D900089818083EBE2F0E080818295869586955B
:100DA0008370882F90E081709070009799F3ABE288
:100DB000B0E0EBE2F0E0808180648C930F900F90C4
:100DC000CF91DF910895DF93CF9300D000D00F92A1
:100DD000CDB7DEB71B821A821982EBE2F0E0808188
:100DE0008823DCF7EBE2F0E08081898389818295BA
:100DF0008F70282F30E0898186958695882F90E026
:100E0000282B392B8981869586958695882F90E0A9
:100E1000822B932B81709070882329F08FEF9FEFA6
:100E20009D838C830FC0ECE2F0E08081282F30E0BE
:100E30008A819B81822B932B9B838A838A819B81CE
:100E40009D838C838C819D810F900F900F900F90CC
:100E50000F90CF91DF910895DF93CF930F92CDB78D
:100E6000DEB704C0ECE2F0E080818983EBE2F0E0E1
:100E70008081881F8827881F8130A1F30F90CF9130
:100E8000DF910895DF93CF930F92CDB7DEB70E9425
:100E9000E3060F90CF91DF910895DF93CF9300D0B9
:100EA000CDB7DEB79A83898389819A81009731F023
:100EB00089819A8190938E0080938D000F900F907E
:100EC000CF91DF910895DF93CF9300D0CDB7DEB7F8
:100ED0009A83898389819A81009731F089819A81E7
:100EE0009093900080938F000F900F90CF91DF919F
:100EF00008951F920F920FB60F9211242F933F93D4
:100F00004F935F936F937F938F939F93AF93BF9311
:100F1000EF93FF93DF93CF93CDB7DEB780918D0032
:100F200090918E00009729F0E0918D00F0918E0055
:100F30000995CF91DF91FF91EF91BF91AF919F9173
:100F40008F917F916F915F914F913F912F910F9072
:100F50000FBE0F901F9018951F920F920FB60F9211
:100F600011242F933F934F935F936F937F938F93AE
:100F70009F93AF93BF93EF93FF93DF93CF93CDB73F
:100F8000DEB780918F0090919000009729F0E0915A
:100F90008F00F09190000995CF91DF91FF91EF9133
:100FA000BF91AF919F918F917F916F915F914F9181
:100FB0003F912F910F900FBE0F901F901895DF93C8
:100FC000CF93CDB7DEB7A3E5B0E0E3E5F0E08081F5
:100FD00080648C93A3E5B0E0E3E5F0E08081886075
:100FE0008C93A3E5B0E0E3E5F0E080818F778C930C
:100FF000A3E5B0E0E3E5F0E0808181608C93A3E5B8
:10100000B0E0E3E5F0E080818D7F8C93A3E5B0E074
:10101000E3E5F0E0808184608C93A3E5B0E0E3E554
:10102000F0E080818F7E8C93A3E5B0E0E3E5F0E013
:10103000808180628C93A7E3B0E0E7E3F0E08081F9
:1010400088608C93E2E5F0E01082A9E5B0E0E9E584
:10105000F0E080818E7F8C93A9E5B0E0E9E5F0E0D7
:1010600080818D7F8C93CF91DF910895DF93CF9313
:10107000CDB7DEB7AFE4B0E0EFE4F0E080818E7F83
:101080008C93AFE4B0E0EFE4F0E080818D7F8C934F
:10109000AEE4B0E0EEE4F0E08081877F8C93AEE4D4
:1010A000B0E0EEE4F0E080818F7E8C93AFE4B0E0BE
:1010B000EFE4F0E080818F7B8C93AFE4B0E0EFE46D
:1010C000F0E080818F778C93AFE4B0E0EFE4F0E064
:1010D00080818F7E8C93AFE4B0E0EFE4F0E080811C
:1010E0008F7D8C93CF91DF910895DF93CF93CDB710
:1010F000DEB7A5E4B0E0E5E4F0E0808180648C93A5
:10110000A5E4B0E0E5E4F0E0808188608C93A5E49C
:10111000B0E0E5E4F0E080818F778C93A5E4B0E067
:10112000E5E4F0E0808181608C93A5E4B0E0E5E443
:10113000F0E080818D7F8C93A5E4B0E0E5E4F0E001
:10114000808184608C93A5E4B0E0E5E4F0E08081E8
:101150008F7E8C93A5E4B0E0E5E4F0E080818062CE
:101160008C93A1E3B0E0E1E3F0E0808180688C93B0
:10117000E4E4F0E01082A9E5B0E0E9E5F0E0808188
:101180008F7B8C93A9E5B0E0E9E5F0E080818F7773
:101190008C93CF91DF910895DF93CF930F92CDB7CA
:1011A000DEB71982E8E5F0E08081882F90E0817059
:1011B00090700097B9F3A8E5B0E0E8E5F0E0808131
:1011C00081608C9381E0898389810F90CF91DF9139
:1011D0000895DF93CF930F92CDB7DEB71982E8E57C
:1011E000F0E0808186958695882F90E081709070E0
:1011F0000097A9F3A8E5B0E0E8E5F0E080818B7FF7
:101200008C9381E0898389810F90CF91DF9108953C
:10121000DF93CF930F92CDB7DEB71982E8E5F0E008
:1012200080818295869586958370882F90E0817065
:101230009070009799F3A8E5B0E0E8E5F0E08081D0
:1012400080648C9381E0898389810F90CF91DF91B5
:101250000895DF93CF930F92CDB7DEB7E2E5F0E0CC
:101260008081898389810F90CF91DF910895DF93E9
:10127000CF9300D0CDB7DEB7ECE4F0E08081918170
:101280009A83898389819A810F900F90CF91DF9102
:101290000895DF93CF930F92CDB7DEB7E4E4F0E08B
:1012A0008081898389810F90CF91DF910895DF93A9
:1012B000CF9300D0CDB7DEB79A83898389819A8195
:1012C00090937900809378000F900F90CF91DF91E9
:1012D0000895DF93CF9300D0CDB7DEB79A8389838B
:1012E00089819A8190937B0080937A000F900F9070
:1012F000CF91DF910895DF93CF9300D0CDB7DEB7C4
:101300009A83898389819A8190937D0080937C0060
:101310000F900F90CF91DF910895DF93CF9300D07E
:10132000CDB7DEB79A83898389819A8190937F00B4
:1013300080937E000F900F90CF91DF910895DF93FF
:10134000CF9300D0CDB7DEB79A83898389819A8104
:1013500090937F0080937E000F900F90CF91DF914C
:101360000895DF93CF9300D0CDB7DEB79A838983FA
:1013700089819A8190938300809382000F900F90CF
:10138000CF91DF910895DF93CF9300D0CDB7DEB733
:101390009A83898389819A819093850080938400C0
:1013A0000F900F90CF91DF9108951F920F920FB67B
:1013B0000F9211242F933F934F935F936F937F93DB
:1013C0008F939F93AF93BF93EF93FF93DF93CF934D
:1013D000CDB7DEB78091780090917900009729F021
:1013E000E0917800F09179000995CF91DF91FF911C
:1013F000EF91BF91AF919F918F917F916F915F918D
:101400004F913F912F910F900FBE0F901F90189505
:101410001F920F920FB60F9211242F933F934F9369
:101420005F936F937F938F939F93AF93BF93EF934C
:10143000FF93DF93CF93CDB7DEB780917A00909181
:101440007B00009729F0E0917A00F0917B000995EC
:10145000CF91DF91FF91EF91BF91AF919F918F91CC
:101460007F916F915F914F913F912F910F900FBEA0
:101470000F901F9018951F920F920FB60F92112484
:101480002F933F934F935F936F937F938F939F938C
:10149000AF93BF93EF93FF93DF93CF93CDB7DEB7B7
:1014A00080917C0090917D00009729F0E0917C0074
:1014B000F0917D000995CF91DF91FF91EF91BF9160
:1014C000AF919F918F917F916F915F914F913F91DC
:1014D0002F910F900FBE0F901F9018951F920F9293
:1014E0000FB60F9211242F933F934F935F936F93F7
:1014F0007F938F939F93AF93BF93EF93FF93DF936C
:10150000CF93CDB7DEB780917E0090917F0000979A
:1015100029F0E0917E00F0917F000995CF91DF9155
:10152000FF91EF91BF91AF919F918F917F916F91BB
:101530005F914F913F912F910F900FBE0F901F9091
:1015400018951F920F920FB60F9211242F933F936D
:101550004F935F936F937F938F939F93AF93BF93BB
:10156000EF93FF93DF93CF93CDB7DEB780918000E9
:1015700090918100009729F0E0918000F091810026
:101580000995CF91DF91FF91EF91BF91AF919F911D
:101590008F917F916F915F914F913F912F910F901C
:1015A0000FBE0F901F9018951F920F920FB60F92BB
:1015B00011242F933F934F935F936F937F938F9358
:1015C0009F93AF93BF93EF93FF93DF93CF93CDB7E9
:1015D000DEB78091820090918300009729F0E0911E
:1015E0008200F09183000995CF91DF91FF91EF91F7
:1015F000BF91AF919F918F917F916F915F914F912B
:101600003F912F910F900FBE0F901F9018951F9232
:101610000F920FB60F9211242F933F934F935F9326
:101620006F937F938F939F93AF93BF93EF93FF93AA
:10163000DF93CF93CDB7DEB780917A0090917B0096
:10164000009729F0E0917A00F0917B000995CF9105
:10165000DF91FF91EF91BF91AF919F918F917F911A
:101660006F915F914F913F912F910F900FBE0F900F
:101670001F901895DF93CF93CDB7DEB729970FB69C
:10168000F894DEBF0FBECDBF8C836D838C818695B1
:10169000869586958B838C8187708A8319828B814E
:1016A000282F30E0398728878885998581309105F2
:1016B00031F0288539852330310531F02DC0ECE536
:1016C000F0E08D81808328C08A81282F30E03F831D
:1016D0002E838E819F818530910591F02E813F81EF
:1016E00027303105A9F08E819F8184309105A1F4C6
:1016F000EAE4F0E08D81882F90E0918380830CC034
:10170000E8E4F0E08D81882F90E09183808304C02D
:10171000E3E4F0E08D818083898129960FB6F89407
:10172000DEBF0FBECDBFCF91DF910895DF93CF9382
:1017300000D0CDB7DEB78A8319828981806489831E
:1017400089818F77898389818F7D89838A818823A5
:1017500021F489818061898303C089818F7E898397
:101760008981877F898389818B7F898389818E7F26
:10177000898389818D7F8983AEE2B0E0EEE2F0E07B
:1017800080818E7F8C93EDE2F0E0898180830F90E1
:101790000F90CF91DF910895DF93CF93CDB7DEB750
:1017A000A7E3B0E0E7E3F0E080818F7E8C93A7E3CE
:1017B000B0E0E7E3F0E0808180628C93A7E3B0E0E3
:1017C000E7E3F0E080818F7B8C93A7E3B0E0E7E371
:1017D000F0E0808180688C9380E00E94960BCF912E
:1017E000DF910895DF93CF930F92CDB7DEB7898352
:1017F000EFE2F0E089818083EEE2F0E080818823EF
:10180000DCF70F90CF91DF910895DF93CF93CDB7A1
:10181000DEB7EFE2F0E08FEA8083EEE2F0E0808175
:101820008823DCF7EFE2F0E08081CF91DF9108952B
:10183000DF93CF93CDB7DEB7A7E3B0E0E7E3F0E007
:1018400080818F7E8C93A7E3B0E0E7E3F0E08081B6
:101850008F7D8C93A7E3B0E0E7E3F0E080818064C4
:101860008C93A7E3B0E0E7E3F0E080818F778C937F
:1018700081E00E94960BCF91DF910895DF93CF9383
:10188000CDB7DEB7EEE2F0E080818823DCF7EFE24F
:10189000F0E08081CF91DF910895DF93CF930F9295
:1018A000CDB7DEB78983EFE2F0E089818083EEE295
:1018B000F0E080818823DCF70F90CF91DF910895CD
:1018C000DF93CF93CDB7DEB7AFE5B0E0EFE5F0E063
:1018D000808180688C93ABE5B0E0EBE5F0E080813F
:1018E00080648C93A5E5B0E0E5E5F0E0808181605F
:1018F0008C93A5E5B0E0E5E5F0E0808182608C9313
:10190000ABE5B0E0EBE5F0E0808180688C93A5E585
:10191000B0E0E5E5F0E0808184608C93A5E5B0E07F
:10192000E5E5F0E0808188608C93ABE5B0E0EBE525
:10193000F0E0808180628C93A4E5B0E0E4E5F0E023
:10194000808180648C93CF91DF910895DF93CF9352
:1019500000D0CDB7DEB79A83898389819A8190932D
:101960008700809386000F900F90CF91DF910895AC
:10197000DF93CF9300D0CDB7DEB79A838983898177
:101980009A8190938900809388000F900F90CF9157
:10199000DF910895DF93CF9300D0CDB7DEB79A8360
:1019A000898389819A8190938B0080938A000F901C
:1019B0000F90CF91DF9108951F920F920FB60F9263
:1019C00011242F933F934F935F936F937F938F9344
:1019D0009F93AF93BF93EF93FF93DF93CF93CDB7D5
:1019E000DEB78091860090918700009729F0E09102
:1019F0008600F09187000995CF91DF91FF91EF91DB
:101A0000BF91AF919F918F917F916F915F914F9116
:101A10003F912F910F900FBE0F901F9018951F921E
:101A20000F920FB60F9211242F933F934F935F9312
:101A30006F937F938F939F93AF93BF93EF93FF9396
:101A4000DF93CF93CDB7DEB7809188009091890066
:101A5000009729F0E0918800F09189000995CF91D5
:101A6000DF91FF91EF91BF91AF919F918F917F9106
:101A70006F915F914F913F912F910F900FBE0F90FB
:101A80001F9018951F920F920FB60F9211242F934B
:101A90003F934F935F936F937F938F939F93AF93F6
:101AA000BF93EF93FF93DF93CF93CDB7DEB78091D2
:101AB0008A0090918B00009729F0E0918A00F091C4
:101AC0008B000995CF91DF91FF91EF91BF91AF917D
:101AD0009F918F917F916F915F914F913F912F9146
:101AE0000F900FBE0F901F901895DF93CF93CDB737
:101AF000DEB7E0E2F0E01082A1E2B0E0E1E2F0E087
:101B0000808181608C93A1E2B0E0E1E2F0E080812D
:101B10008D7F8C93CF91DF910895DF93CF9300D089
:101B200000D0CDB7DEB78B83E1E2F0E08081887F23
:101B30008A83198289818062898389818068898307
:101B4000898184608983E6E5F0E089818083E6E528
:101B5000F0E080818823DCF7E1E2F0E08081887F9B
:101B60008A838A81883011F01C8227C0E3E2F0E08A
:101B70008B818083198289818068898389818460CF
:101B80008983E6E5F0E089818083E6E5F0E0808105
:101B90008823DCF7E1E2F0E08081887F8A838A8114
:101BA000883119F481E08C8308C08A81803219F46D
:101BB00082E08C8302C083E08C838C810F900F9035
:101BC0000F900F90CF91DF910895DF93CF9300D0C6
:101BD00000D0CDB7DEB78B83E1E2F0E08081887F73
:101BE0008A83198289818062898389818068898357
:101BF000898184608983E6E5F0E089818083E6E578
:101C0000F0E080818823DCF7E1E2F0E08081887FEA
:101C10008A838A81803111F01C8227C0E3E2F0E0E0
:101C20008B8180831982898180688983898184601E
:101C30008983E6E5F0E089818083E6E5F0E0808154
:101C40008823DCF7E1E2F0E08081887F8A838A8163
:101C5000803419F481E08C8308C08A81883419F4B7
:101C600082E08C8302C083E08C838C810F900F9084
:101C70000F900F90CF91DF910895DF93CF9300D015
:101C800000D0CDB7DEB78B83E3E2F0E08B818083B9
:101C90001982898180688983898184608983E6E5E6
:101CA000F0E089818083E6E5F0E080818823DCF73D
:101CB000E1E2F0E08081887F8A838A81883211F4B2
:101CC0001C8208C08A81803319F481E08C8302C0B1
:101CD00082E08C838C810F900F900F900F90CF91AA
:101CE000DF910895DF93CF930F92CDB7DEB71982BE
:101CF00089818068898389818460898389818064FE
:101D00008983E6E5F0E089818083E6E5F0E0808183
:101D10008823DCF7E3E2F0E080810F90CF91DF9140
:101D20000895DF93CF930F92CDB7DEB719828981E3
:101D300080688983898184608983E6E5F0E0898110
:101D40008083E6E5F0E080818823DCF7E3E2F0E0E1
:101D500080810F90CF91DF910895DF93CF930F9201
:101D6000CDB7DEB7198289818061898389818068D6
:101D70008983898184608983E6E5F0E089818083B5
:101D8000E6E5F0E080818823DCF70F90CF91DF91CA
:101D90000895DF93CF9300D0CDB7DEB78A83E2E218
:101DA000F0E08A81816080831982898180688983DB
:101DB000898184608983898180648983E6E5F0E094
:101DC000898180830F900F90CF91DF910895DF93E9
:101DD000CF9300D0CDB7DEB7E6E5F0E08081882371
:101DE000DCF7E1E2F0E08081887F898389818036B9
:101DF00019F08981883611F41A8211C08981883AD4
:101E000019F08981803B19F481E08A8308C08981B7
:101E1000803719F089818837F9F682E08A838A81D0
:101E20000F900F90CF91DF910895DF93CF9300D063
:101E300000D0CDB7DEB78B83E3E2F0E08B81808307
:101E400019828981806889838981846089838981F5
:101E500080648983E6E5F0E089818083E6E5F0E04F
:101E600080818823DCF7E1E2F0E08081887F8A834B
:101E70008A81803A51F4A6E5B0E0E6E5F0E08081A1
:101E800080688C938FEF8C8313C08A81883B11F418
:101E90001C820EC08A81803C19F48EEF8C8308C0AE
:101EA0008A81883C19F48DEF8C8302C08CEF8C837F
:101EB0008C810F900F900F900F90CF91DF9108952C
:101EC000DF93CF9300D00F92CDB7DEB7198289810F
:101ED000806889838981846089838981806489831A
:101EE000E6E5F0E089818083E6E5F0E08081882303
:101EF000DCF7E1E2F0E08081887F8A838A818038A4
:101F000019F08A81803929F4E3E2F0E080818B8343
:101F10001AC08A81883819F08A81883929F4E3E265
:101F2000F0E080818B830FC08A81803A51F4A6E56E
:101F3000B0E0E6E5F0E0808180688C938FEF8B83E2
:101F400002C08EEF8B838B810F900F900F90CF91FB
:101F5000DF910895DF93CF9300D00F92CDB7DEB716
:101F60008A836B8319828A81883008F06FC08B81E5
:101F70008130A1F4AAE3B0E0EAE3F0E08081482FE9
:101F80008A81282F30E081E090E0022E02C0880F85
:101F9000991F0A94E2F7842B8C93ECC18B818823E0
:101FA00041F5AAE3B0E0EAE3F0E08081482F8A81BE
:101FB000282F30E081E090E002C0880F991F2A9519
:101FC000E2F7809584238C93ABE3B0E0EBE3F0E0A1
:101FD0008081482F8A81282F30E081E090E0022E16
:101FE00002C0880F991F0A94E2F7809584238C938E
:101FF000C1C18B81823039F5AAE3B0E0EAE3F0E0B9
:102000008081482F8A81282F30E081E090E002C053
:10201000880F991F2A95E2F7809584238C93ABE370
:10202000B0E0EBE3F0E08081482F8A81282F30E098
:1020300081E090E0022E02C0880F991F0A94E2F717
:10204000842B8C9397C181E0898394C18A818830E5
:1020500008F482C08A81803108F07EC08B81813093
:10206000B9F4A7E3B0E0E7E3F0E08081482F8A818C
:10207000882F90E09C012850304081E090E0022EB3
:1020800002C0880F991F0A94E2F7842B8C9372C1C7
:102090008B81882371F5A7E3B0E0E7E3F0E080816E
:1020A000482F8A81882F90E09C012850304081E0A1
:1020B00090E002C0880F991F2A95E2F7809584234B
:1020C0008C93A8E3B0E0E8E3F0E08081482F8A81B8
:1020D000882F90E09C012850304081E090E0022E53
:1020E00002C0880F991F0A94E2F7809584238C938D
:1020F00041C18B81823069F5A7E3B0E0E7E3F0E00E
:102100008081482F8A81882F90E09C0128503040A0
:1021100081E090E002C0880F991F2A95E2F7809530
:1021200084238C93A8E3B0E0E8E3F0E08081482FBB
:102130008A81882F90E09C012850304081E090E017
:10214000022E02C0880F991F0A94E2F7842B8C9309
:1021500011C181E089830EC18A81803108F482C077
:102160008A81883108F07EC08B818130B9F4A4E384
:10217000B0E0E4E3F0E08081482F8A81882F90E08E
:102180009C012051304081E090E0022E02C0880F77
:10219000991F0A94E2F7842B8C93ECC08B818823DF
:1021A00071F5A4E3B0E0E4E3F0E08081482F8A8198
:1021B000882F90E09C012051304081E090E002C0E7
:1021C000880F991F2A95E2F7809584238C93A5E3C5
:1021D000B0E0E5E3F0E08081482F8A81882F90E02D
:1021E0009C012051304081E090E0022E02C0880F17
:1021F000991F0A94E2F7809584238C93BBC08B814E
:10220000823069F5A4E3B0E0E4E3F0E08081482F98
:102210008A81882F90E09C012051304081E090E03D
:1022200002C0880F991F2A95E2F7809584238C932A
:10223000A5E3B0E0E5E3F0E08081482F8A81882FB4
:1022400090E09C012051304081E090E0022E02C0DD
:10225000880F991F0A94E2F7842B8C938BC081E03E
:10226000898388C08A81883108F482C08A8180325B
:1022700008F07EC08B818130B9F4A1E3B0E0E1E3E6
:10228000F0E08081482F8A81882F90E09C012851BE
:10229000304081E090E0022E02C0880F991F0A941E
:1022A000E2F7842B8C9366C08B81882371F5A1E3C0
:1022B000B0E0E1E3F0E08081482F8A81882F90E050
:1022C0009C012851304081E090E002C0880F991FA6
:1022D0002A95E2F7809584238C93A2E3B0E0E2E3B1
:1022E000F0E08081482F8A81882F90E09C0128515E
:1022F000304081E090E0022E02C0880F991F0A94BE
:10230000E2F7809584238C9335C08B81823069F508
:10231000A1E3B0E0E1E3F0E08081482F8A81882FDB
:1023200090E09C012851304081E090E002C0880F8D
:10233000991F2A95E2F7809584238C93A2E3B0E05D
:10234000E2E3F0E08081482F8A81882F90E09C01B1
:102350002851304081E090E0022E02C0880F991F82
:102360000A94E2F7842B8C9305C081E0898302C034
:1023700081E0898389810F900F900F90CF91DF9139
:102380000895DF93CF9300D000D0CDB7DEB78B8315
:102390006C838B818695869586958A838B818770E1
:1023A00089838A81882359F58C818130A1F4ABE33C
:1023B000B0E0EBE3F0E08081482F8981282F30E006
:1023C00081E090E0022E02C0880F991F0A94E2F784
:1023D000842B8C9314C0ABE3B0E0EBE3F0E080819E
:1023E000482F8981282F30E081E090E0022E02C042
:1023F000880F991F0A94E2F7809584238C938A8131
:10240000813059F58C818130A1F4A8E3B0E0E8E394
:10241000F0E08081482F8981282F30E081E090E032
:10242000022E02C0880F991F0A94E2F7842B8C9326
:1024300014C0A8E3B0E0E8E3F0E08081482F898190
:10244000282F30E081E090E0022E02C0880F991F13
:102450000A94E2F7809584238C938A81823059F51F
:102460008C818130A1F4A5E3B0E0E5E3F0E0808168
:10247000482F8981282F30E081E090E0022E02C0B1
:10248000880F991F0A94E2F7842B8C9314C0A5E35C
:10249000B0E0E5E3F0E08081482F8981282F30E02B
:1024A00081E090E0022E02C0880F991F0A94E2F7A3
:1024B000809584238C938A81833059F58C81813077
:1024C000A1F4A2E3B0E0E2E3F0E08081482F89814B
:1024D000282F30E081E090E0022E02C0880F991F83
:1024E0000A94E2F7842B8C9314C0A2E3B0E0E2E3F9
:1024F000F0E08081482F8981282F30E081E090E052
:10250000022E02C0880F991F0A94E2F78095842357
:102510008C930F900F900F900F90CF91DF910895B3
:10252000DF93CF9300D000D0CDB7DEB78B838B8104
:102530008695869586958A838B81877089838A8123
:102540008823C1F4E9E3F0E08081282F30E089811D
:10255000882F90E0A90102C0559547958A95E2F72A
:10256000CA0181709070009711F41C8250C051E034
:102570005C834DC08A818130C1F4E6E3F0E0808164
:10258000282F30E08981882F90E0A90102C055955D
:1025900047958A95E2F7CA0181709070009711F40F
:1025A0001C8235C051E05C8332C08A818230C1F424
:1025B000E3E3F0E08081282F30E08981882F90E0EC
:1025C000A90102C0559547958A95E2F7CA01817025
:1025D0009070009711F41C821AC051E05C8317C000
:1025E000E0E3F0E08081282F30E08981882F90E0BF
:1025F000A90102C0559547958A95E2F7CA018170F5
:102600009070009711F41C8202C051E05C838C81B1
:102610000F900F900F900F90CF91DF910895DF935F
:10262000CF9300D00F92CDB7DEB78B838B81869589
:10263000869586958A838B81877089838A81882392
:10264000A1F4ABE3B0E0EBE3F0E08081482F8981B7
:10265000282F30E081E090E0022E02C0880F991F01
:102660000A94E2F784278C9341C08A818130A1F4D7
:10267000A8E3B0E0E8E3F0E08081482F8981282FCB
:1026800030E081E090E0022E02C0880F991F0A948A
:10269000E2F784278C932AC08A818230A1F4A5E3D3
:1026A000B0E0E5E3F0E08081482F8981282F30E019
:1026B00081E090E0022E02C0880F991F0A94E2F791
:1026C00084278C9313C0A2E3B0E0E2E3F0E08081C2
:1026D000482F8981282F30E081E090E0022E02C04F
:1026E000880F991F0A94E2F784278C930F900F901C
:1026F0000F90CF91DF910895DF93CF93CDB7DEB7E1
:10270000A6E2B0E0E6E2F0E0808180688C93A6E289
:10271000B0E0E6E2F0E080818E7F8C93A6E2B0E04C
:10272000E6E2F0E0808182608C93A6E2B0E0E6E22F
:10273000F0E0808184608C93A7E2B0E0E7E2F0E013
:1027400080818F7B8C93A7E2B0E0E7E2F0E08081AC
:102750008F778C93A7E2B0E0E7E2F0E080818F7D95
:102760008C93A6E2B0E0E6E2F0E0808180628C9398
:10277000A0E5B0E0E0E5F0E080818F7D8C93A0E5FE
:10278000B0E0E0E5F0E080818F7B8C93A0E5B0E0E5
:10279000E0E5F0E0808180688C93CF91DF9108952F
:1027A000DF93CF9300D000D00F92CDB7DEB78B83ED
:1027B0008B81282F30E03D832C838C819D81833059
:1027C000910509F486C02C813D81243031058CF4BB
:1027D0008C819D818130910509F441C02C813D811E
:1027E000223031050CF058C08C819D810097D1F0CA
:1027F00000C12C813D812530310509F4A4C08C81B4
:102800009D81853091050CF481C02C813D8126305D
:10281000310509F4B5C08C819D818730910509F49B
:10282000CCC0E7C0A7E2B0E0E7E2F0E080818E7FB5
:102830008C93A7E2B0E0E7E2F0E080818D7F8C939B
:10284000A7E2B0E0E7E2F0E080818B7F8C93A7E223
:10285000B0E0E7E2F0E08081877F8C93CAC0A7E216
:10286000B0E0E7E2F0E0808181608C93A7E2B0E025
:10287000E7E2F0E080818D7F8C93A7E2B0E0E7E2B1
:10288000F0E080818B7F8C93A7E2B0E0E7E2F0E09C
:102890008081877F8C93ADC0A7E2B0E0E7E2F0E0F3
:1028A00080818E7F8C93A7E2B0E0E7E2F0E0808148
:1028B00082608C93A7E2B0E0E7E2F0E080818B7F5A
:1028C0008C93A7E2B0E0E7E2F0E08081877F8C9311
:1028D00090C0A7E2B0E0E7E2F0E0808181608C93F5
:1028E000A7E2B0E0E7E2F0E0808182608C93A7E2AB
:1028F000B0E0E7E2F0E080818B7F8C93A7E2B0E06C
:10290000E7E2F0E08081877F8C9373C0A7E2B0E0BC
:10291000E7E2F0E080818E7F8C93A7E2B0E0E7E20F
:10292000F0E080818D7F8C93A7E2B0E0E7E2F0E0F9
:10293000808184608C93A7E2B0E0E7E2F0E08081E0
:10294000877F8C9356C0A7E2B0E0E7E2F0E0808199
:1029500081608C93A7E2B0E0E7E2F0E080818D7FB8
:102960008C93A7E2B0E0E7E2F0E0808184608C9392
:10297000A7E2B0E0E7E2F0E08081877F8C9339C086
:10298000A7E2B0E0E7E2F0E080818E7F8C93A7E2DF
:10299000B0E0E7E2F0E0808182608C93A7E2B0E0F3
:1029A000E7E2F0E0808184608C93A7E2B0E0E7E2A8
:1029B000F0E08081877F8C931CC0A7E2B0E0E7E263
:1029C000F0E0808181608C93A7E2B0E0E7E2F0E084
:1029D000808182608C93A7E2B0E0E7E2F0E0808142
:1029E00084608C93A7E2B0E0E7E2F0E08081877F2B
:1029F0008C93E6E2F0E0808182958F70882F90E0E2
:102A0000817090700097A9F3A6E2B0E0E6E2F0E0F2
:102A1000808180618C93E4E2F0E0808191819A83EF
:102A2000898389819A810F900F900F900F900F905A
:102A3000CF91DF910895DF93CF93CDB7DEB728977D
:102A40000FB6F894DEBF0FBECDBF1C821B8215C02F
:102A5000A4E3B0E0E4E3F0E08081282F81E090E09F
:102A60000B8002C0880F991F0A94E2F7822B8C9387
:102A70008B819C8101969C838B838B819C81873089
:102A8000910534F328960FB6F894DEBF0FBECDBF84
:102A9000CF91DF910895DF93CF930F92CDB7DEB73B
:102AA00089838981882F90E081709070882329F034
:102AB00080E161E00E94C11104C080E160E00E94F9
:102AC000C11189818695882F90E08170907088234C
:102AD00029F081E161E00E94C11104C081E160E060
:102AE0000E94C111898186958695882F90E081701A
:102AF0009070882329F082E161E00E94C11104C036
:102B000082E160E00E94C111898186958695869553
:102B1000882F90E081709070882329F083E161E034
:102B20000E94C11104C083E160E00E94C11189814B
:102B300082958F70882F90E081709070882329F0A3
:102B400084E161E00E94C11104C084E160E00E9460
:102B5000C1118981829586958770882F90E0817058
:102B60009070882329F085E161E00E94C11104C0C2
:102B700085E160E00E94C1118981829586958695E4
:102B80008370882F90E081709070882329F086E10F
:102B900061E00E94C11104C086E160E00E94C111A1
:102BA000898188232CF487E161E00E94C11104C06F
:102BB00087E160E00E94C1110F90CF91DF910895ED
:102BC000DF93CF93CDB7DEB7A6970FB6F894DEBFED
:102BD0000FBECDBF8BE061E00E94C11180E090E0AC
:102BE000A0E0B0E48BA39CA3ADA3BEA36BA17CA18A
:102BF0008DA19EA120E030E04AE755E40E941F022B
:102C0000DC01CB018F8F98A3A9A3BAA36F8D78A104
:102C100089A19AA120E030E040E85FE30E9425040A
:102C200088232CF481E090E09E8F8D8F3FC06F8DC4
:102C300078A189A19AA120E03FEF4FE757E40E94D5
:102C4000C50318164CF56BA17CA18DA19EA120E0B7
:102C500030E040E251E40E941F02DC01CB01BC01E4
:102C6000CD010E944900DC01CB019E8F8D8F0FC0EA
:102C700080E991E09C8F8B8F8B8D9C8D0197F1F774
:102C80009C8F8B8F8D8D9E8D01979E8F8D8F8D8DBF
:102C90009E8D009769F714C06F8D78A189A19AA1C4
:102CA0000E944900DC01CB019E8F8D8F8D8D9E8D02
:102CB0009A8F898F898D9A8D0197F1F79A8F898FD5
:102CC0008BE060E00E94C11180E090E0A0EAB1E4F6
:102CD0008D8B9E8BAF8BB88F6D897E898F89988DF8
:102CE0002BEA3AEA4AEA50E40E941F02DC01CB01D7
:102CF000898B9A8BAB8BBC8B69897A898B899C89F0
:102D000020E030E040E85FE30E94250488231CF4C3
:102D100081E0888B91C069897A898B899C8920E0C0
:102D200030E04FE753E40E94C50318160CF07BC057
:102D30006D897E898F89988D20E030E04AE754E4E0
:102D40000E941903DC01CB018C879D87AE87BF876A
:102D50006C857D858E859F8520E030E04AE755E4CF
:102D60000E941F02DC01CB0188879987AA87BB8755
:102D7000688579858A859B8520E030E040E85FE3BF
:102D80000E94250488232CF481E090E09F838E83A9
:102D90003FC0688579858A859B8520E03FEF4FE7B6
:102DA00057E40E94C50318164CF56C857D858E8509
:102DB0009F8520E030E040E251E40E941F02DC01E8
:102DC000CB01BC01CD010E944900DC01CB019F83F6
:102DD0008E830FC080E991E09D838C838C819D81DF
:102DE0000197F1F79D838C838E819F8101979F834B
:102DF0008E838E819F81009769F724C068857985CD
:102E00008A859B850E944900DC01CB019F838E83CC
:102E10008E819F819B838A838A819B810197F1F7B1
:102E20009B838A830FC069897A898B899C890E94D8
:102E30004900DC01CB01888B8889898389818A9547
:102E4000F1F78983A6960FB6F894DEBF0FBECDBF0B
:102E5000CF91DF910895DF93CF93CDB7DEB782E3B3
:102E60000E943E178FE00E943E1786E00E943E17A8
:102E700081E00E943E17CF91DF910895DF93CF93B9
:102E8000CDB7DEB769970FB6F894DEBF0FBECDBFE2
:102E9000898F89E060E00E94C1118AE060E00E94B1
:102EA000C111898D88232CF48FE061E00E94C1114B
:102EB00004C08FE060E00E94C111898D82958695E3
:102EC00086958370882F90E081709070882329F018
:102ED0008EE061E00E94C11104C08EE060E00E94BB
:102EE000C111898D829586958770882F90E08170B9
:102EF0009070882329F08DE061E00E94C11104C028
:102F00008DE060E00E94C111898D82958F70882FBD
:102F100090E081709070882329F08CE061E00E943D
:102F2000C11104C08CE060E00E94C1110E94E01554
:102F3000898D869586958695882F90E08170907012
:102F4000882329F08FE061E00E94C11104C08FE066
:102F500060E00E94C111898D86958695882F90E04A
:102F600081709070882329F08EE061E00E94C11189
:102F700004C08EE060E00E94C111898D8695882F83
:102F800090E081709070882329F08DE061E00E94CC
:102F9000C11104C08DE060E00E94C111898D882FAD
:102FA00090E081709070882329F08CE061E00E94AD
:102FB000C11104C08CE060E00E94C1110E94E015C4
:102FC00080E090E0A0EAB1E48D8B9E8BAF8BB88F50
:102FD0006D897E898F89988D2BEA3AEA4AEA50E416
:102FE0000E941F02DC01CB01898B9A8BAB8BBC8BBF
:102FF00069897A898B899C8920E030E040E85FE329
:103000000E94250488231CF481E0888B91C0698983
:103010007A898B899C8920E030E04FE753E40E9455
:10302000C50318160CF07BC06D897E898F89988D39
:1030300020E030E04AE754E40E941903DC01CB01B0
:103040008C879D87AE87BF876C857D858E859F85A4
:1030500020E030E04AE755E40E941F02DC01CB018A
:1030600088879987AA87BB87688579858A859B85A4
:1030700020E030E040E85FE30E94250488232CF440
:1030800081E090E09F838E833FC0688579858A8543
:103090009B8520E03FEF4FE757E40E94C5031816D9
:1030A0004CF56C857D858E859F8520E030E040E283
:1030B00051E40E941F02DC01CB01BC01CD010E9442
:1030C0004900DC01CB019F838E830FC080E991E032
:1030D0009D838C838C819D810197F1F79D838C83E7
:1030E0008E819F8101979F838E838E819F81009720
:1030F00069F724C0688579858A859B850E94490087
:10310000DC01CB019F838E838E819F819B838A8389
:103110008A819B810197F1F79B838A830FC069891C
:103120007A898B899C890E944900DC01CB01888BBC
:103130008889898389818A95F1F7898369960FB691
:10314000F894DEBF0FBECDBFCF91DF910895DF931E
:10315000CF93CDB7DEB769970FB6F894DEBF0FBE39
:10316000CDBF898F89E061E00E94C1118AE060E0F3
:103170000E94C111898D88232CF48FE061E00E94A8
:10318000C11104C08FE060E00E94C111898D829559
:10319000869586958370882F90E081709070882343
:1031A00029F08EE061E00E94C11104C08EE060E071
:1031B0000E94C111898D829586958770882F90E035
:1031C00081709070882329F08DE061E00E94C11128
:1031D00004C08DE060E00E94C111898D82958F70DE
:1031E000882F90E081709070882329F08CE061E056
:1031F0000E94C11104C08CE060E00E94C1110E94D5
:10320000E015898D869586958695882F90E081704A
:103210009070882329F08FE061E00E94C11104C002
:103220008FE060E00E94C111898D86958695882F78
:1032300090E081709070882329F08EE061E00E9418
:10324000C11104C08EE060E00E94C111898D869595
:10325000882F90E081709070882329F08DE061E0E4
:103260000E94C11104C08DE060E00E94C111898DEF
:10327000882F90E081709070882329F08CE061E0C5
:103280000E94C11104C08CE060E00E94C1110E9444
:10329000E01580E090E0A0EAB1E48D8B9E8BAF8BCF
:1032A000B88F6D897E898F89988D2BEA3AEA4AEA30
:1032B00050E40E941F02DC01CB01898B9A8BAB8BFF
:1032C000BC8B69897A898B899C8920E030E040E851
:1032D0005FE30E94250488231CF481E0888B91C061
:1032E00069897A898B899C8920E030E04FE753E433
:1032F0000E94C50318160CF07BC06D897E898F89EA
:10330000988D20E030E04AE754E40E941903DC0184
:10331000CB018C879D87AE87BF876C857D858E8529
:103320009F8520E030E04AE755E40E941F02DC015F
:10333000CB0188879987AA87BB87688579858A8525
:103340009B8520E030E040E85FE30E94250488236D
:103350002CF481E090E09F838E833FC0688579855F
:103360008A859B8520E03FEF4FE757E40E94C50325
:1033700018164CF56C857D858E859F8520E030E0A4
:1033800040E251E40E941F02DC01CB01BC01CD01EF
:103390000E944900DC01CB019F838E830FC080E92E
:1033A00091E09D838C838C819D810197F1F79D83B2
:1033B0008C838E819F8101979F838E838E819F81D5
:1033C000009769F724C0688579858A859B850E9466
:1033D0004900DC01CB019F838E838E819F819B837B
:1033E0008A838A819B810197F1F79B838A830FC02F
:1033F00069897A898B899C890E944900DC01CB010B
:10340000888B8889898389818A95F1F78983699670
:103410000FB6F894DEBF0FBECDBFCF91DF910895F8
:10342000DF93CF9300D0CDB7DEB79A8389830AC0EC
:10343000E981FA8180810E94A71889819A81019689
:103440009A838983E981FA818081882389F70F90A3
:103450000F90CF91DF910895DF93CF9300D000D0EC
:1034600000D0CDB7DEB79C838B836D834E8382E023
:103470000E943E178CE20E943E171A82198208C0F1
:1034800084E10E943E1789819A8101969A838983FB
:103490008D81282F30E08E81882F90E00024969532
:1034A00087950794969587950794982F802D280FD8
:1034B000391F89819A818217930714F38B819C812C
:1034C0000E94101A26960FB6F894DEBF0FBECDBF2D
:1034D000CF91DF910895DF93CF9300D000D0CDB787
:1034E000DEB78B836C8382E00E943E178CE20E94E1
:1034F0003E171A82198208C084E10E943E17898112
:103500009A8101969A8389838B81282F30E08C8160
:10351000882F90E000249695879507949695879537
:103520000794982F802D280F391F89819A8182173F
:10353000930714F30F900F900F900F90CF91DF919E
:103540000895DF93CF930F92CDB7DEB78FEF8983C6
:1035500084E10E949012882311F4198217C085E13A
:103560000E949012882319F481E089830FC086E1BC
:103570000E949012882319F482E0898307C087E1B2
:103580000E949012882311F483E0898389810F902F
:10359000CF91DF910895DF93CF9300D0CDB7DEB701
:1035A0008FEF8A838FEF898380E160E00E94C111F1
:1035B00081E161E00E94C11182E161E00E94C111DC
:1035C00083E161E00E94C1110E94A11A8A838A816D
:1035D0008F3F41F08A81882F90E0FC01E859FF4F2E
:1035E0008081898380E161E00E94C11181E160E016
:1035F0000E94C11182E161E00E94C11183E161E09A
:103600000E94C1110E94A11A8A838A818F3F41F0D2
:103610008A81882F90E0FC01E459FF4F80818983E3
:1036200080E161E00E94C11181E161E00E94C1116D
:1036300082E160E00E94C11183E161E00E94C1115A
:103640000E94A11A8A838A818F3F41F08A81882F44
:1036500090E0FC01E059FF4F8081898380E161E0C7
:103660000E94C11181E161E00E94C11182E161E02B
:103670000E94C11183E160E00E94C1110E94A11A61
:103680008A838A818F3F41F08A81882F90E0FC01F4
:10369000EC58FF4F8081898389810F900F90CF91E3
:1036A000DF910895DF93CF930F92CDB7DEB78FE10F
:1036B00061E00E94AA0F8BE061E00E94AA0F0E94C5
:1036C000DF070E94750880E061E00E94AA0F81E098
:1036D00061E00E94AA0F82E061E00E94AA0F83E0ED
:1036E00061E00E94AA0F80E161E00E94AA0F81E1DF
:1036F00061E00E94AA0F82E161E00E94AA0F83E1CB
:1037000061E00E94AA0F0F90CF91DF910895DF939F
:10371000CF9300D0CDB7DEB7898380E060E00E9410
:10372000C11180E160E00E94C1118FE169810E94B6
:103730003A0B8BE069810E943A0B0F900F90CF916A
:10374000DF910895DF93CF9300D0CDB7DEB78983A3
:1037500080E061E00E94C11180E161E00E94C1113E
:103760008981982F90958FE1692F0E943A0B89816A
:10377000982F90958BE0692F0E943A0B0F900F9035
:10378000CF91DF910895DF93CF930F92CDB7DEB73E
:1037900080E061E00E94C11180E160E00E94C111FF
:1037A0008FE16FEF0E943A0B8BE060E00E943A0BD2
:1037B0000F90CF91DF910895DF93CF930F92CDB704
:1037C000DEB780E060E00E94C11180E161E00E940C
:1037D000C1118FE160E00E943A0B8BE06FEF0E9415
:1037E0003A0B0F90CF91DF910895DF93CF930F9213
:1037F000CDB7DEB780E060E00E94C11180E160E0FB
:103800000E94C1118FE160E00E943A0B8BE060E002
:103810000E943A0B0F90CF91DF910895DF93CF93E1
:10382000CDB7DEB70E94420780938C00CF91DF9125
:103830000895DF93CF93CDB7DEB70E944F060E9465
:10384000521B8EE09CE10E944D0780918C008134D8
:1038500021F480E80E94871BF8CF80918C0082348D
:1038600021F48FEF0E94A21BF0CF80918C00833453
:1038700019F40E94C31BE9CF80918C00843419F4A1
:103880000E94DC1BE2CF0E94F51BDFCF2F923F92FC
:103890004F925F926F927F928F929F92AF92BF9260
:1038A000CF92DF92EF92FF920F931F93CF93DF930C
:1038B000CDB7DEB7CA1BDB0B0FB6F894DEBF0FBE69
:1038C000CDBF09942A88398848885F846E847D84B6
:1038D0008C849B84AA84B984C884DF80EE80FD80B8
:1038E0000C811B81AA81B981CE0FD11D0FB6F8942E
:0E38F000DEBF0FBECDBFED010895F894FFCFEF
:1038FE0000000000000000003738392F3435362A1A
:08390E003132332D43303D2B13
:00000001FF
